:100000005446495300010000803E02003E0585EF42
:1000100009140123170508104E36593009140152EE
:10002000170508104E365930091401061705081037
:100030004E36594C03000000000000000000000094
:100040005446435300200000E81E02000000000058
:1000500000000210012100002521000041220000C3
:10006000292100002B2100002D2100003D2100004E
:100070003D2100003D2100003D2100002F21000016
:10008000312100003D21000033210000BF6000004D
:10009000C9610000372100003D210000F9EA00108D
:1000A0003721000033400000374000003D210000B0
:1000B0003D210000EF5B00008D5100003B4000003F
:1000C000F5580000372100003D2100003D210000CF
:1000D0000000000000000000000000000000000020
:1000E0000000000000000000000000000000000010
:1000F0000000000000000000000000000000000000
:1001000000000000000000000000000000000000EF
:1001100000000000000000000000000000000000DF
:1001200000000000000000000000000000000000CF
:1001300000000000000000000000000000000000BF
:1001400000000000000000000000000000000000AF
:1001500000F003F800F020F8FEE70D480168890878
:100160008900002001C101C101C101C17047000027
:10017000E4EE0010FEE7FEE7FEE7FEE7FEE7FEE73F
:10018000FEE7FEE7FEE703480047FEE7FEE7000064
:10019000202100003D21000000F002F800F068F886
:1001A0000AA090E8000C82448344AAF10107DA45D2
:1001B00001D100F05DF8AFF2090EBAE80F0013F0BC
:1001C000010F18BFFB1A43F001031847A82D0100C7
:1001D000E82D01000A444FF0000C10F8013B13F029
:1001E000070408BF10F8014B1D1108BF10F8015B90
:1001F000641E05D010F8016B641E01F8016BF9D183
:1002000013F0080F1EBF10F8014BAD1C0C1B09D1D9
:100210006D1E58BF01F801CBFAD505E014F8016B4B
:1002200001F8016B6D1EF9D59142D6D370470000DD
:10023000103A24BF78C878C1FAD8520724BF30C812
:1002400030C144BF04680C607047000000230024E4
:1002500000250026103A28BF78C1FBD8520728BFD6
:1002600030C148BF0B6070471FB51FBD10B510BD32
:10027000DFF80CD0FFF7F8FF05F0A6FC12F036F817
:100280000000021003B4FFF7F1FF03BC12F036F8D0
:100290001EF0040F0CBFEFF30880EFF3098009F0A4
:1002A0008FBF000008B5002103200B460A460091CD
:1002B00010F01CFF08BD38B5F64D0024AC80EC8072
:1002C0002C8110F0F0FE6861FF206870F248234630
:1002D00022460460446004720120A8700320214675
:1002E000009410F003FF012038BD38B5E94D022815
:1002F0006C7822460DD0052810D0A24208BF38BD28
:100300000020034602462146009010F0EFFE6C707C
:1003100038BD022914BF01240224EEE7022914BFCC
:1003200064246524E9E738B5DC4BDD4C0A461B78CC
:1003300024784FF0010C6343002401465B006046C3
:10034000009410F0D3FE38BD38B54FF0010C0624F0
:1003500000250B46024621466046009510F0C6FE79
:1003600038BD2DE9F04104460127002503F00700C0
:10037000C84E8846012804BF0020308146D002289C
:1003800044D1308904280BD2002818BF306902D12B
:1003900010F0CDFE306110F8011B217030612EE0AD
:1003A000062808D210F0C5FE3189C1F10501C90047
:1003B000C840207023E0082808D210F0BEFE318922
:1003C000C1F10701C900C840207018E00C2808D20C
:1003D00010F069FE3189C1F10B01C900C8402070DD
:1003E0000DE00E2808D210F060FE3189C1F10D0138
:1003F000C900C840207002E0FF202070002730892B
:10040000401C80B230810E2828BF012588F800509A
:100410003846BDE8F08130B403F007000024DFF86F
:1004200074C201280BD06046BCF808308088022BCB
:100430000CD2120242EA1020ACF8040010E0ACF832
:100440000440ACF80640ACF808400CE01844851EA7
:10045000B5F5806F04DADCF81450284400F8022C5B
:10046000581CACF808000C7030BC00207047F0B489
:100470000746002003F00704864D0646012C04BF02
:100480002E81EE6025D0DFF80CC2022CBCF806C02D
:1004900003D013F0070F0DD01BE02A890CEB0203E9
:1004A000B3F5806F15D26869C05C3870501C288124
:1004B00001200EE0120242EA1C22EA80EB68012BC6
:1004C00005D1B2F5806F24BF40F2FF32EA805A1C9A
:1004D000EA600E70F0BC704738B503F007000024E6
:1004E0000D4601280AD16B4821460B4604818480C1
:1004F000C48002200A46009410F0F8FD2C70002001
:1005000038BD30B583B0DDE9064500EB051C002C95
:1005100018BF022C16D00021012C6CD0032C1CBF5C
:1005200003B030BD0F2202700322427041808180EF
:10053000C180018141818181817B21F00101817331
:1005400003B030BD0CF8105C0CF80F4CB1F8B430AF
:100550002CF80E3CB1F8B6302CF80C3C91F89030E9
:100560002CF80A3C91F891302CF8083C91F8923024
:100570002CF8063C8B8A2CF8043C92F848301CF886
:10058000022C63F300020CF8022C91F8F420012AEB
:100590001CBF03B030BD62228DF8002091F8992075
:1005A0008DF8012091F8992000EB021232F80E2C00
:1005B000120A8DF8022091F8992000EB021212F82D
:1005C0000E2C8DF8032091F8992000EB021232F8DE
:1005D0000C2C120A8DF8042091F89910062200EBD9
:1005E0000110694610F80C0C8DF8050010460CF04F
:1005F000BFF803B030BD0CF8105C01200CF80F0CF4
:100600002CF80E1C2CF80C1C2CF80A1C2CF8081CBE
:100610002CF8061C2CF8041C1CF8020C062220F0F6
:1006200001000CF8020C63208DF800008DF80150D9
:1006300058886946000A8DF8020098788DF8030002
:100640009888000A8DF8040018798DF80500104686
:100650000CF08EF803B030BD0E49002008707047D2
:100660000C48007870470B490120087070470A4A0F
:100670001154704700225A2101200CF052B87047E3
:100680000449002818BF012088707047014880780D
:10069000704700000004011068070110DA0401101F
:1006A000DB0401107047FE480068D0F8C00000F07D
:1006B0000100704770B5FA4C05000CD001F01BFC2E
:1006C00048B92068D0F8C00010F0010F03D02168AD
:1006D0000020886006E0216801208860002D08BFA6
:1006E000002000D0012021680862002D18BF70BDD5
:1006F0002068D0F8D410D0F8D00011F0010F18BF46
:1007000011F0600F2ED02268D2F8B022236822F4B4
:100710008032C3F8B022236841F0610242F0FF2228
:10072000C3F8D420236840F0610242F0FF22C3F8EE
:10073000D020236821F06102C3F8D420236820F080
:100740006102C3F8D0202268D2F8B022236842F4B4
:100750008032C3F8B0222268C2F8D4102168C1F8F0
:10076000D00070BD10F0010F18BF10F0600FCAD19B
:1007700070BDCB480068006A002818BF0120704790
:10078000C74A126802EBC00041637047C449096858
:1007900001EBC000006B00F480707047C04A10216C
:1007A000126802EBC00041637047BD490A68D2F885
:1007B000402160F30D220868C0F840217047B84816
:1007C0000068D0F84001C0F305207047B44A00F03B
:1007D0000F03C0F303101268002902EBC31202EBEF
:1007E0004010D0F8401114BF41F0010121F0010187
:1007F000C0F840117047AA4A00F00F01C0F303107F
:10080000126802EBC11101EB4010D0F8400100F07A
:1008100001007047A2494FF0000C0A68C2F820C0DE
:1008200003680A68136042680B685A6082680B6844
:100830009A60C2680B68DA60426A0B681A64826A5E
:100840000B685A6403690A68936142690B68DA614C
:10085000426B0B681A66836B0A681367C26B0B687E
:100860005A67026C0B689A67426C0B68C3F8802069
:10087000826C0B68C3F88420C26C0B68C3F88820B4
:10088000026D0B68C3F88C20026E0B68C3F89C20C5
:10089000426E0B68C3F8A020826E0B68C3F8A420D8
:1008A000C26E0B68C3F8A820C26F0B68C3F8C020E3
:1008B000D0F880300A68C2F8C430D0F884200B68C1
:1008C000C3F8C820D0F888200B68C3F8CC20D0F833
:1008D0008C200B68C3F8D020D0F89C200B68C3F89C
:1008E000E020D0F8A4200B68C3F8F020D0F8A820AE
:1008F0000B68C3F8F420D0F8AC200B68C3F8F820DC
:10090000D0F8B0300A68C2F8FC300B6821225A6374
:100910000B68DA63C2690B685A62C26A0B689A6430
:10092000026B0B68DA64026F0B68C3F8AC20D0F876
:1009300090300A68C2F8D430D0F894200B68C3F81D
:10094000D820D0F8A0200B68C3F8E420426F0B68D1
:10095000C3F8B020826F0B68C3F8B420D0F8F82138
:100960000B68C3F88022D0F8FC210B68C3F88422FE
:10097000D0F800220B68C3F88822D0F804220B6854
:10098000C3F88C22D0F808320A68C2F89032D0F846
:100990000C220B68C3F89422D0F810220B68C3F81D
:1009A0009822D0F814220B68C3F89C22D0F81822A1
:1009B0000B6822F48032C3F8B022D0F8B4200B6860
:1009C000C3F80021D0F8B8200B68C3F80421D0F890
:1009D000BC200B68C3F80821D0F8C0200B68C3F80E
:1009E0000C21D0F8C4200B68C3F81021D0F8C8201F
:1009F0000B68C3F81421D0F8CC200B68C3F8182179
:100A0000D0F8D0200B68C3F81C21D0F8D4200B6894
:100A1000C3F82021D0F8D8200B68C3F82421D0F8DF
:100A2000DC200B68C3F83021D0F8E0200B68C3F855
:100A30004021D0F8E4200B68C3F84421D0F8E82026
:100A40000B68C3F84821D0F8EC200B68C3F84C21A0
:100A5000D0F8F0200B68C3F85021D0F8F4200B68D0
:100A6000C3F85421D0F8F8200B68C3F85821D0F807
:100A7000FC200B68C3F85C21D0F820210B68C3F878
:100A80008021D0F824210B68C3F88421D0F82821D4
:100A90000B68C3F88821D0F82C210B6802E0000015
:100AA000C84B0100C3F88C21D0F830210B68C3F883
:100AB0009021D0F834210B68C3F89421D0F8382164
:100AC0000B68C3F89821D0F83C210B68C3F89C212F
:100AD000D0F840310A68C2F8A031D0F844210B6840
:100AE000C3F8A421D0F848210B68C3F8B021D0F88E
:100AF0004C210B68C3F8C021D0F850210B68C3F813
:100B0000C421D0F854210B68C3F8C821D0F858216B
:100B10000B68C3F8CC21D0F85C210B68C3F8D02156
:100B2000D0F860210B68C3F8D421D0F864210B6899
:100B3000C3F8D821D0F868210B68C3F8DC21D0F8BD
:100B40006C210B68C3F8E021D0F870210B68C3F862
:100B5000E421D0F874210B68C3F8E821D0F878219B
:100B60000B68C3F8EC21D0F87C210B68C3F8F021A6
:100B7000D0F880210B68C3F8F421D0F884310A68DA
:100B8000C2F8F831D0F888210B68C3F8FC21D0F8FE
:100B90008C210B68C3F80022D0F890210B68C3F8B1
:100BA0000422D0F894210B68C3F80822D0F89821C9
:100BB0000B68C3F80C22D0F89C210B68C3F81022F4
:100BC000D0F8A0210B68C3F81422D0F8A4210B6838
:100BD000C3F81822D0F8A8210B68C3F81C22D0F85B
:100BE000AC210B68C3F82022D0F8B0210B68C3F801
:100BF0002422D0F8B4210B68C3F83022D0F8B821F1
:100C00000B68C3F84022D0F8BC210B68C3F844221B
:100C1000D0F8C0210B68C3F84822D0F8C4210B6873
:100C2000C3F84C22D0F8C8210B68C3F85022D0F882
:100C3000CC210B68C3F85422D0F8D0210B68C3F83C
:100C40005822D0F8D4210B68C3F85C22D0F8D82100
:100C50000B68C3F86022D0F8DC210B68C3F864226B
:100C6000D0F8E0210B68C3F86822D0F8E4210B68C3
:100C7000C3F86C22D0F8E8210B68C3F87022D0F8D2
:100C8000EC210B68C3F87422D0F8F0210B68C3F88C
:100C90007822D0F8F4210B68C3F87C22FE4A12684F
:100CA00032F0FF0307D10B68D3F8903062F30303EF
:100CB0000A68C2F89030F94A82F801C0C36F13F095
:100CC000010F1CBF01235370D0F88C3013F0010FBB
:100CD00003D0537843F0020353700B68D3F8C0304D
:100CE000D1F800C023F00103CCF8C0300B68D3F872
:100CF000D030D1F800C023F00103CCF8D030D0F8C8
:100D0000900010F0010F03D0507840F004005070B4
:100D10000868D0F8D400096820F00100C1F8D400B8
:100D20007047DE4800787047DC4880787047DB49C0
:100D3000C8707047D948C0787047D9490A68D2F856
:100D4000C42060F309020868C0F8C4207047D44882
:100D50000068D0F8C400C0F309007047CF4948606C
:100D60007047CF480068C06870472DE9F047DFF84A
:100D70002C93CB4C064610F0010F18BF16F4801FC1
:100D80007ED001F0A7F800287AD099F8010040F051
:100D9000020089F801002068D0F8AC00216820F03A
:100DA0000800C1F8AC002068D0F800022168C1F842
:100DB00080012068D0F804022168C1F8840120680D
:100DC000D0F808022168C1F888012068D0F80C0228
:100DD0002168C1F88C012068D0F810022168C1F8A0
:100DE00090012068D0F814022168C1F894012068AD
:100DF000D0F818022168C1F898012068D0F81C02C8
:100E00002168C1F89C012068D0F820022168C1F84F
:100E1000A0012068D0F82412C0F8A4112068D0F8EE
:100E200030022168C1F8B0012068D0F84002216882
:100E3000C1F8C0012068D0F844022168C1F8C4019B
:100E40002068D0F848022168C1F8C8012068D0F8AD
:100E50004C022168C1F8CC012068D0F8500221680A
:100E6000C1F8D0012068D0F854022168C1F8D4013B
:100E70002068D0F858022168C1F8D801206800E045
:100E800034E0D0F85C022168C1F8DC012068D0F8B9
:100E900060022168C1F8E0012068D0F8640221688E
:100EA000C1F8E4012068D0F868022168C1F8E801BF
:100EB0002068D0F86C022168C1F8EC012068D0F8F5
:100EC00070022168C1F8F0012068D0F8740221682E
:100ED000C1F8F4012068D0F878022168C1F8F8015F
:100EE0002068D0F87C022168C1F8FC0199F8010063
:100EF00099F8031016F4003F00EA010518BF25F029
:100F0000010516F4802F18BF25F0020516F4002FF6
:100F100018BF25F004052068D0F8B002216820F43D
:100F20008030C1F8B00215F0070F6DD02068D9F8F5
:100F300004704FF00008D0F8B802216840F00100BA
:100F4000C1F8B8022068D0F8B802216820F001008A
:100F5000C1F8B8022068D0F8B002216840F48030AF
:100F6000C1F8B0024FF0630A0FE003F04AF95046AF
:100F70002168D1F8B81211F0010F02D04FF001082A
:100F800003E0011EA0F10100F2DC381EA7F1010709
:100F900002DDB8F1000FE8D0B8F1000F34D02068BE
:100FA00015F0010FD0F8C0000CBF20F0010040F098
:100FB00001002168C1F8C000206815F0020FD0F8C8
:100FC000D00014BF40F0010020F001002168C1F8FA
:100FD000D000206815F0040FD0F8D40014BF40F002
:100FE000010020F001002168C1F8D40089F8025006
:100FF000012089F800002068D0F8B002216840F490
:101000008030C1F8B00241E02068D0F8C00021680B
:1010100020F00100C1F8C0002068D0F8D00021689D
:1010200020F00100C1F8D0002068D0F8D400216879
:1010300020F00100C1F8D400002089F80200DDB1E1
:10104000022089F800002068D0F8B002216840F43E
:101050008030C1F8B0022068D0F8B802216840F0B2
:101060000100C1F8B8022068D0F8B802216820F069
:101070000100C1F8B80209E02168D1F8B012226875
:1010800021F48031C2F8B01289F800002068D0F84D
:10109000400120F00D0005E0E0FE030018040110FF
:1010A000C84B010016F0020F18BF40F0010016F007
:1010B000080F18BF40F0040016F0040F18BF40F0EE
:1010C00008002168C1F8400116F0010F44D001F07A
:1010D0003AF9054601F03AF901462068C06800284F
:1010E0000EBF28460846294600282068D0F8C001CF
:1010F00014BF40F0010020F001002268C2F8C001D6
:1011000041B12068D0F8E001216840F00100C1F849
:10111000E00107E02068D0F8E001216820F001003C
:10112000C1F8E00116F0200F18BF00251DD0284699
:1011300001F013F90028206800EB4510D0F84012A8
:1011400014BF41F0010121F00101C0F840126D1CF3
:10115000022DECD3BDE8F0872068D0F8C0012168EB
:1011600020F00100C1F8C001D4E72068D0F84002A7
:10117000216820F00100C1F840022068D0F8600228
:10118000216820F00100C1F86002BDE8F0872DE978
:10119000F0030246002002F00F03FE49D1F800C020
:1011A0000CEBC315C2F3031305EB4313D3F8403123
:1011B00013F0010F0DD142F01003C3F3031305EB3D
:1011C0004313D3F8403113F0010F04BFBDE8F0031F
:1011D00070470CEBC214D4F81C31DCF81C10C3F3BC
:1011E000080901F00807D4F800111FFA81F800215E
:1011F00042EA0113C3F3031305EB4313D3F8403161
:1012000013F0010F14D004EB4113D3F844C1CCF315
:10121000080617F1000C1CBFD3F844C1CCF3023C04
:10122000D3F8403106FA0CFCC3F30543604418447C
:10123000491C0229DCD300FB08F0C9EB0911BDE809
:10124000F00300EB4100704710B50120FFF79FFF4E
:1012500004460220FFF79BFF044400F014FC2044E6
:101260004FF47A71484347F23051B0FBF1F010BDB2
:101270002DE9F041C74E05463068006810F01F04A4
:1012800008BF01240120FFF782FF07460220FFF775
:101290007EFF074400F0F7FB3918BF4F002D18BF41
:1012A000002953D030680022D0F8C00010F0010FA0
:1012B00037D07820B0EB151F306809D9D0F8CC00B2
:1012C000336820F00F0040F00100C3F8CC002DE09F
:1012D000D0F8C400B14BC0F309006043A0EB00108C
:1012E00003EB400CAE48A0FB0530430ABCFBF1F019
:1012F000102828BF0F20834298BF1846002808BF37
:10130000012005D0012884BF00FB11C2B2FBF0F21E
:101310003368D3F8CC3060F303033068C0F8CC30C6
:1013200004E0B7FBF5F0884288BF421AC4EB041012
:101330004000B2FBF0F0B0F5005F28BF41F6FF704F
:101340003268526860F30C0230684260306840686E
:10135000C0F30C006043C0EB001001EB4000B7FB92
:10136000F0F0BDE8F0818B480168D1F8C01011F0B1
:10137000010F08D00068D0F8CC0000F00F00C0EBDF
:1013800000108001704770B501680968006801F0BD
:101390001F054068C0F30C060120FFF7F8FE044665
:1013A0000220FFF7F4FE044400F06DFB06FB05F19C
:1013B000C1EB011104EB410108447749B1FBF0F0A6
:1013C00070BD74480068D0F8CC0000F00F00704782
:1013D00070490A6852680B68C2F30C025B6860F3DC
:1013E0000C0308684360104670476A48006840680C
:1013F000C0F30C0070476749096801EBC010D0F8D2
:1014000000014EF6602180B2B1FBF0F0401C4008B4
:10141000704730B44EF6602331B1B3FBF1F1491C93
:101420004A08B2F5804F01D343F6FF72B3FBF2F1E5
:10143000491C4D08574953080028096801EBC011A1
:1014400007BF981FA3F10C0CD1F8040180B218BF9C
:10145000A2F1060C2CF0010CD1F8004162F30F044C
:10146000C1F80041D1F8002163F31F42C1F8002107
:10147000D1F8042160F30F02C1F80421D1F8100162
:101480006CF30F00C1F81001284630BC7047414989
:10149000096801EBC010D0F80001000C70473D4B0B
:1014A0001A6802EBC012D2F800C161F31F4CC2F8F7
:1014B00000C1002818BF7047881F1A680C3921F036
:1014C0000101D2F8042160F30F021868C0F804216A
:1014D0001868D0F8100161F30F001968C1F8100105
:1014E00070472C4A00F00F01C0F30310126802EBA2
:1014F000C11101EB4010D0F84401C0F3080070475F
:10150000244A00F00F03126802EBC312D2F8143120
:10151000C0F3031002EB4010CB1AD0F8442161F362
:101520000802C0F84421D0F844119B1E63F318410F
:10153000C0F84411704717490A68D269096812F067
:10154000100F00F00F0201EBC211D1F82021C0F3FF
:10155000031001EB4010D2B2D0F84401C0F30800F0
:1015600008BF0022801A0004000C08BF0120704749
:101570004FEA101C0007C00E0A4B02FA00F01B686D
:1015800003EBCC1303EB810101F5C0410B68184359
:1015900008607047C84B010000389C1C1B81070085
:1015A00089888888E04B0100F74B020900071B6817
:1015B000C00E03EBC21202EB810101F5C0410968C4
:1015C00021FA00F000F003007047F04B00F00F022A
:1015D000C0F303101B6803EBC21202EB4010C0F80B
:1015E0004C117047E94A00F00F01C0F30310126874
:1015F00002EBC11101EB4010D0F84C017047E34BF6
:1016000000211A68D26912F0080F0CD000F00F0107
:101610001A68C0F3031002EBC11101EB4010D0F8BF
:101620004401C0F3023108467047D84A1368DB69A9
:10163000D2F800C043F00803CCF81C3000F00F03D0
:101640001268C0F3031002EBC31202EB4010D0F893
:10165000442161F30E32C0F844217047CB4B002186
:101660001A68D26912F0080F0CD000F00F011A6846
:10167000C0F3031002EBC11101EB4010D0F8480198
:10168000C0F3024108467047C04A00F00F03C0F3A0
:101690000310126802EBC31202EB4010D0F848218D
:1016A00061F31242C0F848217047042988BF70478F
:1016B00030B40023B54C2268D269254612F0080FD9
:1016C00000F00F022D68C0F3031005EBC21202EB0D
:1016D00040121CBFD2F84401C0F302330020D4F8FA
:1016E00000C0DCF81CC01CF0080F1CBFD2F8480179
:1016F000C0F30240C91A0844042803DD081A011D7A
:10170000042003E00028BCBF0144002019442368E2
:10171000DB69D4F800C043F00803CCF81C30D2F8E1
:10172000443161F30E33C2F84431D2F8481160F30A
:101730001241C2F8481130BC70479449002808682B
:10174000806904D0096840F0080088617047096822
:1017500020F00800886170478C4800688069C0F3F9
:10176000C0007047894A00F00F01C0F303101268EF
:1017700002EBC11101EB4010D0F8480180B2704774
:10178000824B1968D1F8C01011F0010F08BF7047E3
:101790001968D1F848111A68D2F844211FFA81FC5F
:1017A000C2F30232BCF1000F14BF002A70471A685E
:1017B000D2F8CC204FF6FF7C022A03D110F0010FA3
:1017C00018BF704781EA0C001968C1F848017047DA
:1017D0006E4B00211A68D26912F0080F0CD000F08D
:1017E0000F011A68C0F3031002EBC11101EB4010A6
:1017F000D0F84801C0F300510846704701207047F7
:1018000030B4022ADDF808C026BF921E520800221A
:10181000022B26BF9B1E5B0800235D4C00F00F05CA
:10182000A4FB0C4C4FEA1C14DFF860C1C0F303109A
:10183000DCF800C00CEBC51C0CEB4010D0F854C118
:1018400061F31B6C62F3134C63F30B2C64F3070C12
:10185000C0F854C130BC704770B44C4D00F00F0458
:10186000C0F303102D68DDF80CC005EBC41404EBC5
:101870004010D0F854010029C0F30366C0F30345BB
:10188000C0F30324C0B218BF0E6012B16900891CF6
:10189000116013B16100891C1960BCF1000F04BF15
:1018A00070BC704700EB80008000CCF8000070BC7A
:1018B000704770B491B000224FF480456C10EC4634
:1018C00001E0082A05D2531C03EB8303B5FBF3F3B5
:1018D00004E0D31F03EB8303B4FBF3F35B1A48BFAD
:1018E0005B424CF82230521C102AEAD30026009B9F
:1018F00001215CF821209A42BCBF13460E46491CC8
:101900001029F6D3214900F00F02C0F30310096833
:1019100001EBC21101EB4011D1F85801D1F8582167
:1019200000F00F0066F30302C1F85821082807D21F
:10193000401C00EB8000B5FBF0F011B070BC7047AC
:10194000C01F00EB8000B4FBF0F011B070BC70471A
:101950000E4A00F00F01C0F30310126802EBC11130
:1019600001EB4010D0F8580100F00F00082834BFF8
:10197000401CC01F00EB800034BF4FF480414FF487
:101980000051B1FBF0F07047E04B0100C84B010083
:10199000CDCCCCCC10F00F0F08BF7047584A00F0E8
:1019A0000F000029126802EBC010D0F824110CBF00
:1019B00021F4803141F48031C0F8241170470021B6
:1019C00010F00F0F0BD04E4A00F00F00126802EB20
:1019D000C010D0F8240110F4803F18BF0121084640
:1019E0007047474902460868D0F8AC0012F0010F72
:1019F0000A68C0F3C000D2F8AC2005D0096842F0F4
:101A00000802C1F8AC207047096822F00802C1F84A
:101A1000AC2070473A4A136858671068816770476E
:101A2000374900280868D0F8AC0005D0096840F0B4
:101A30000200C1F8AC007047096820F00200C1F84C
:101A4000AC0070472E4900280868D0F8AC0005D0DB
:101A5000096840F00100C1F8AC007047096820F047
:101A60000100C1F8AC00704725480068D0F8DC00E0
:101A7000704723490968C1F8E000704720480068B2
:101A8000D0F89800704770B41D4E00203168D1F82E
:101A9000401111F0010F04BF70BC704711F0040F2A
:101AA000336801F00805D3F81C31D6F800C0C3F341
:101AB0000803DCF800C11FFA8CF4D6F800C0DCF88B
:101AC00044C1CCF3080C18BFC1F307403268D26997
:101AD000C1F3052112F0080204D03268D2F8442183
:101AE000C2F30232002D18BF491C0CFA02F201FBAE
:101AF0000200604370BCC3EB031100EB4100704770
:101B0000C84B0100FEF735BE10B5FEF732FE0128C6
:101B100018BF10BD0020FEF7CDFD21210020FEF7EB
:101B20002FFE2121BDE810400120FEF729BE10B58F
:101B3000FEF7B8FDFEF71DFE01280AD10020FEF7D2
:101B4000B9FD21210020FEF71BFE21210120FEF717
:101B500017FE0121052001F0C2FD0121052001F041
:101B6000BEFDFF490020487110BD10B54FF406605E
:101B700001F00BFEBDE810404FF4066001F0F8BD27
:101B8000F74A0146507B002818BF0120002918BFE2
:101B9000012151737047F24A516A506208467047FA
:101BA000EF4900200873C87088707047EC49002026
:101BB0000873C870887070472DE9F34F00F00F0567
:101BC0006800861EA1B0002445EA0410FEF713FE4B
:101BD00000283BD02298002100EBC417EC460020DF
:101BE00007EB81120CEB811352F8208043F8208020
:101BF000401C1028F8D3491C0229F0D3D9490022EF
:101C00004FF0020809683019434601EBC01723FA68
:101C100002F101F0010107EB82100CEB8111A0F53C
:101C20005F50B1E8004E00F50040521CA0E8004EA5
:101C3000B1E8004EA0E8004EB1E8004EA0E8004E2A
:101C400091E8020E80E8020E4245E0D3641C022CAB
:101C5000BAD323B0BDE8F08F70B50646FEF7AFFDEE
:101C6000C04D0446EEB12868A201314600F580401F
:101C700010F04AFB2868002100EB841000F580403A
:101C8000016041608160C160016141618161C16148
:101C9000016241628162C162016341638163C16328
:101CA00070BD81012868BDE8704000F5804010F0EB
:101CB00030BB10B5AA4CE061FFF757F8FFF731F8D9
:101CC000A1696FF30F01A161A269C1B242EA0121CA
:101CD000A161022818BF10BDA06940F00100A061F9
:101CE00010BDA14801688968A04A1143026891604B
:101CF000016809689E4A00681143016000F009BF4D
:101D000070B5994A05460C46106883689748116873
:101D10001843886010680068954908431168086096
:101D200000F0F7FE002C4FD00020FEF7C3FC206827
:101D300020B1FEF76FFD0020FEF7BCFC2846FFF740
:101D4000B8FF0020FEF757FDC8B16068FFF784FFB9
:101D5000844DE16839B128684FF4807200F5C040C5
:101D600010F0D2FA02E0834800F0D7FD616959B162
:101D700028684FF4807200F5004010F0C5FA012089
:101D8000FEF739FD60B907E028684FF4807100F56F
:101D9000004010F0BEFAF2E71120FEF72CFD28B14A
:101DA000A16800291CBF0120FFF706FF0220FEF7F3
:101DB00022FD18B91220FEF71EFD28B12169002965
:101DC0001CBF0220FFF7F8FE002065490873C870A9
:101DD00088704862487B002048734FF4066001F029
:101DE000D4FCBDE870404FF4066001F0C1BC10B5F2
:101DF0000020FEF75FFC00F071FE594800790028D2
:101E000008BF10BD584801680968026821F0030145
:101E100041F00D7141F080511160016889680068DE
:101E200021F0020141F00D7141F08051816010BD3F
:101E30004FF4066001F0A0BC10B54FF4066001F04D
:101E40009BFCFEF796FC01280AD10020FEF732FC2D
:101E500021210020FEF794FC21210120FEF790FCB7
:101E600045480168D1F8B012006821F48031C0F80B
:101E7000B0120020FEF71EFC00F030FE384800795A
:101E8000002808BF10BD384801680968026821F0C1
:101E9000030141F00D7141F08051116001688968C2
:101EA000006821F0020141F00D7141F08051816024
:101EB00010BD10B501F065FC10F0600018BF0120E6
:101EC00010BD2748C06970472549002818BF012068
:101ED0000870704722480078002818BF012070471A
:101EE0001F488069704772B61D498A6922EA00005E
:101EF000886162B670471A484078002818BF0120F0
:101F0000704770B5FEF735FC002818BF70BD00247F
:101F1000134D2C73EC70AC7021212046FEF730FC81
:101F200021210120FEF72CFC6C70BDE870400120DF
:101F3000FEF7C0BB70B50446FEF71BFC002818BFB7
:101F400070BD0021064D2973E970A9702121002080
:101F5000FEF716FC21210120FEF712FC022C0DE0F9
:101F600020040110E04B0100D04B010002003412AC
:101F70000300341274070110C84B01003CBF01205C
:101F8000FEF70CFC012068702C62BDE87040FEF783
:101F900091BB10B5FEF7EDFB002818BF10BD002067
:101FA000FE4C2073E070A0702121FEF7E9FB212197
:101FB0000120FEF7E5FB0120FEF7F0FB0120607039
:101FC0002062BDE81040FEF775BB0020FEF772BB33
:101FD000F2490020C87088700120FEF76BBBEF4902
:101FE00088627047ED48806A7047002818BF01205A
:101FF000EA49C862704770B5E84C0546A06A401CC3
:10200000A062E16A002918BFFFF7BAFB607850B1FF
:10201000206A10B1206A401E2062206A002804BF96
:102020000020FEF747FB20212846FEF7A9FB616A46
:1020300000291CBF28468847FEF773FE02281AD1E4
:10204000D7480168D1F8B81211F0010F13D0016818
:10205000D1F8B812026841F00101C2F8B812016863
:10206000D1F8B812006821F00101C0F8B812A069D7
:1020700040F00200A061CB48016841F020010160FE
:1020800070BD0020B7E70120B5E710B5FFF7ECFC05
:102090000446FFF7EEFCC448044208BF10BDBF4829
:1020A000816941F0040181610E2101EAD43104F01B
:1020B00001020A43816962F31F418161B9480168E5
:1020C00041F02001016010BD002818BF0120B34974
:1020D00008717047B5487047B5487047AF48006B06
:1020E0007047AE48406B7047AC48806B70472DE935
:1020F000F00FAE4E4FF0000C88B006F14007E146FD
:102100004FF0FF3806F80C8007F80C900CF1010C2A
:10211000BCF1200FF6DB4FF0000C002807D912F8B5
:102120000C4006F80C400CF1010C6045F7D8002279
:1021300094464FF0010A00280BD9B456002C05DB59
:10214000202C3CBF0AFA04F444EA0C0C521C8242D4
:10215000F3D3002214466D460AFA02FB1BEA0C0F69
:102160001ABFAC54641C05F80280521C202AF3DB11
:102170000022002810D916F902C0BCF1000F08DBBC
:10218000BCF1200F3ABF15F80CC007F802C007F8E1
:102190000280521C8242EED3804C00220028C4F8F8
:1021A000309008D917F902C0944501D0276302E0A6
:1021B000521C8242F6D37F4F0020A7F1600CA7F19A
:1021C00020060CF8008006F8009007F80090401CEC
:1021D0002028F6DB0020002905D91A5C0CF8002025
:1021E000401C8142F9D80020024600290BD91CF975
:1021F0000230002B04DB202B3CBF0AFA03F3184308
:10220000521C8A42F3D3002213460AFA02FB1BEA4D
:10221000000F1ABFAB545B1C05F80280521C202A29
:10222000F3DB002200290AD91CF90230002B03DB62
:10223000202B3CBFEB5CBB54521C8A42F4D30022DF
:10224000C4F83890002907D9BB56934201D0A76340
:1022500002E0521C8A42F7D311F0010F18BF1F226F
:1022600009D00AFA02F3034203D10AFA02F2104338
:1022700001E0521EF5D5002213460AFA02F7074282
:102280001ABFAB545B1C05F80280521C202AF4DBF9
:10229000002000290AD91CF90020002A03DB202A8B
:1022A0003CBFAA5C3254401C8842F4D30020C4F8DE
:1022B000349000299EBF08B0BDE8F00F7047325639
:1022C000824204D0666308B0BDE8F00F7047401C3E
:1022D0008842F4D308B0BDE8F00F7047364900EBF0
:1022E000401001EB8010704700EBC000334900EB59
:1022F000400001EB80007047DFF8A0C0012B8CF894
:1023000006008CF8071003D9401C20F0010011468C
:102310008CF808008CF8091000FB01F24FF6FF71F1
:1023200001EA4202ACF8122001EA4000ACF81400C5
:1023300070471A48407A70471848007A7047174A21
:102340009072D17270471548C07A70471348807AEE
:1023500070471B4A1070517070471949085C7047EC
:102360002DE9F047DFF834A004469AF80D00002864
:1023700004BF9AF802000FF0D1FF9AF80C00002871
:1023800008BFBDE8F0874FF00009DAF81C00C84626
:102390004F464E464D4610F0020F13E02004011048
:1023A000C84B010060040110010007007407011010
:1023B00094070110F40701101408011054100110C3
:1023C0002E0401101CBFDFF80C9410F0040F06D08F
:1023D000BAF81210FF4A21F0010101EB020810F0D7
:1023E000010F04D010F0100F0CBFFB4FFA4E10F08D
:1023F000200F18BFF94DDAF828002060FEF794FC92
:1024000010F0010F06D0FEF7DCFF022828BF9AF873
:10241000030000D20020C4E90109C4E90565C4E94C
:1024200003870120BDE8F087ED490020087370475D
:1024300010B50446FEF7C3F98201EA48006800F5CA
:1024400080412046BDE810400FF05EBF2DE9F0410D
:10245000FEF7B5F904460020FFF7C4F80022002C6F
:1024600024D9E04F012541F6F0763B68002103EBCB
:10247000821C05FA01F3034212D04B080CEB8303D4
:1024800003F580434FEAC1781B684FEAD86823FA06
:1024900008F3C3F30C03B34202D90020BDE8F08176
:1024A000491C2029E5D3521CA242DED30120BDE8FD
:1024B000F0812DE9F05F00F00F060024C94F884637
:1024C000750046EA0410FEF796F960B302218A46C9
:1024D000002308EBC41B0020002908D92AFA00F2C7
:1024E00002F001029A421CBF401C8842F6D3884287
:1024F00016D2A5F10209D7F800E0A1440EEBC919E4
:102500000BEB831C002209EB801909EB820000F51C
:102510008040D0F840084CF82200521C102AF4D316
:102520005B1C022BD7D3641C022CCAD3BDE8F09FDE
:102530002DE9F05F00F00F0670000025A0F1020BFE
:10254000012741F6F07846EA05194846FEF753F9A7
:10255000002834D04846FFF752F807FA00F4022C5E
:1025600088BF02244846FFF73DF80022002C26D9F8
:102570009C4B0BEB05011B6803EBC11A00210AEB16
:10258000821907FA01F3034213D04B0809EB8303C6
:1025900003F580434FEAC17CD3F840384FEADC6C46
:1025A00023FA0CF3C3F30C03434502D90020BDE822
:1025B000F09F491C2029E4D3521CA242DED36D1C9B
:1025C000022DC0D30120BDE8F09F864B4FF6FF7C63
:1025D0001B6803EB8111430801EB830101F5804186
:1025E000C007C00E0CFA00FC0B6802FA00F023EAE8
:1025F0000C031843086070477A4A126802EB811195
:10260000420801EB820101F58041C0070968C00E54
:1026100021FA00F080B270472DE9FF4F714883B076
:102620001D460068109C00F5804017460E4601903C
:10263000FEF79FF85FEA00081CBF0020FEF73AF89B
:102640000020FEF7CFFF824670190090B04284BF91
:102650004FF0010B4FF6FF7E26D901984FF0000C8A
:1026600000EB8611039B17E00BFA03F010EA0A0F48
:1026700011D05808DD0751F82020ED0E0EFA05F9AB
:1026800022EA090234F8029B0CF1010C09FA05F563
:102690002A4341F820205B1CBC4538BF202BE3D3E4
:1026A0000098761C8642D8D3B8F1000F04BF07B05B
:1026B000BDE8F08F00204A49C870887007B001203B
:1026C000BDE8F04FFDF7F6BF2DE9F0470746454856
:1026D0009A46144600680E46089D00F58049FEF7AC
:1026E00048F85FEA00081CBF0020FDF7E3FF06EB97
:1026F0000A03B34284BF3C4907EB040C1AD93C4699
:1027000009EB86100FE00A57202A0BD202EBD27A8F
:102710004FEA6A0AD20750F82AA0D20E2AFA02F229
:1027200025F8022B641C644538BF202CEBD3761CA3
:102730009E42E4D3B8F1000F08BFBDE8F087002047
:102740002749C8708870BDE8F0470120FDF7B2BF87
:102750002DE9F05F224E234A4FF000084FF6FF7735
:1027600000280C4652D0116801F5804900F00F0195
:10277000C0F3031001290EBF00210229BDE8F09F1C
:10278000022828BFBDE8F09F01EB000AFDF7F1FF2A
:1027900005001CBF0020FDF78DFF002009EBCA19C2
:1027A000002209EB801153084FEAC27C4FEADC6C2F
:1027B00001EB830307FA0CFBD3F840A804FA0CFCE6
:1027C0002AEA0B0A4AEA0C0C521CC3F840C8202A19
:1027D000E9D30BE014080110541001102C11011062
:1027E00020040110E04B010094070110401C022856
:1027F000D6D3002D08BFBDE8F09F86F8038086F889
:102800000280BDE8F05F0120FDF754BF106800F5BD
:102810008049FDF7AEFF05001CBF0020FDF74AFF11
:102820004FF0000C002209EB8C115308D007C00EAA
:1028300007FA00FB51F823A004FA00F02AEA0B0A79
:102840004AEA0000521C41F82300202AEDD30CF183
:10285000010CBCF1210FE5D3002DCED1BDE8F09FD6
:1028600010B5FEF768FE4149088210BD3F4AC1B26B
:1028700000F4F853128A914288BF11464FF0640C5D
:1028800001FB0CF1B1FBF2F11A0A02FB0C1189B247
:1028900010F4005F12BF08B2484200B2704700282F
:1028A000B8BF404280B2B4BF00214FF4005100F4E1
:1028B000F85211432D4AC0B2128A504341EA102007
:1028C00070472B4800F029B810B5294800F025F8CA
:1028D00028484FF424610068BDE8104000F58040AE
:1028E0000FF017BD214810B5808B00F48170FFF701
:1028F000E0F9204C4FF48071206800F5C0400FF0E3
:1029000008FD20684FF4046100F580400FF001FDE0
:10291000BDE810400020FEF75BBD70B5154D0446C4
:102920004FF48071286800F5C0400FF0F2FC0021E0
:1029300001206256002A15DBD31702EB137C4FEA05
:102940002C132E682CF00F0C06EBC31303EB810342
:1029500003F5C043A2EB0C0252001E6800FA02F21B
:1029600032431A60491C2029E3D370BD20040110B2
:1029700074070110E04B0100F0B400247D4E0123E8
:1029800082B0002808BF337019D00128347018BFF6
:10299000747014D0784D286800687849014328681D
:1029A00001603178764A61B110684BF6083CC0F896
:1029B0000CC01068DFF8CCC1C0F808C00CE0737020
:1029C000E8E7D2F800C07048CCF80C00D2F800C09C
:1029D0004FF0BB70CCF808006C48006830F0FF0C7A
:1029E00008D1D2F800C0DCF80CC060F3030C10680A
:1029F000C0F80CC040F2E24CC9B11068806840F0E9
:102A00001807106887600120009004E00198471EB5
:102A10000197FBD20098471E009728BFCDF804C04D
:102A2000F4D210688068176840F48050B8600120C4
:102A3000009004E00198471E0197FBD20098471EC2
:102A4000009728BFCDF804C0F4D2707828B1106880
:102A5000C068166840F03000F0601068D0F8B00030
:102A6000166840F00100C6F8B0000120009004E0B4
:102A70000198461E0196FBD20098461E009628BF7C
:102A8000CDF804C0F4D21068C367D2F800C04FF488
:102A9000E060CCF810001068C0F8884000291CBF26
:102AA0001068C0F894301068C068116820F03000D9
:102AB000C86010688068116820F0180020F4805009
:102AC000886028680068296820F0040040F00D70D4
:102AD00040F08050086002B0F0BC704728480168A0
:102AE000C968026821F03001D16001688968006816
:102AF00021F0180121F4805181601F4801680968A4
:102B0000006821F0040141F00D7141F08051016035
:102B10007047194801680A68184900681143016044
:102B2000144917480A7832B10268926841F21803D2
:102B30001A4303689A60497829B10168C968026834
:102B400041F03001D1600168D1F8B010006841F067
:102B50000101C0F8B01070470D49C0B241EA002031
:102B6000074909680864704705490A480968086404
:102B7000704700005C040110D04B010004003412C7
:102B8000CC4B01002000BB0005F40100D0FE030087
:102B900013005FA000005FA0594858490268916186
:102BA0000268891CD1610268491E5163026812687B
:102BB000036822F0030242F00D7242F080521A6064
:102BC00002685269036822F0010242F00D7242F07D
:102BD00080525A61026812691143026811610268E9
:102BE0004849916000684849C16048490020086030
:102BF000704770B501F0FBFA444D2C682CB10020F1
:102C0000286001F0F9FA204670BD30BF00F064FE84
:102C10000028F2D000F073FE6860EEE72DE9F04185
:102C200001F0E5FA354E364CDFF8E080771CD8F835
:102C300000503DB10020C8F8000001F0DDFA284640
:102C4000BDE8F08172B6206846632068876120BFC6
:102C5000206886612068476362B6BFF36F8FBFF359
:102C60004F8F00F039FE0028E1D000F048FEC8F890
:102C70000400DCE7224801680968026821F00301CA
:102C800041F00D7141F0805111600268204991605E
:102C9000016809691F4A00681143016130BF70472C
:102CA00072B616491648026851630268C91CD161A0
:102CB0000068891E816162B6704711480168096821
:102CC000154A00681143016070470D4801680968A2
:102CD000006821F0030141F00D7141F08051016065
:102CE000704772B605490648026891610268891CFE
:102CF000D1610068491E416362B67047000034121A
:102D0000D04B01003C003412280034126004011042
:102D100008003412010034120300341270470028F6
:102D200018BF0120F5490968486070470022B2EBDE
:102D3000D10F26D20368B3F1FF3F04BF4368B3F15C
:102D4000FF3F17D18368B3F1FF3F04BFC368B3F1FE
:102D5000FF3F0FD10369B3F1FF3F04BF4369B3F1F4
:102D6000FF3F07D18369B3F1FF3F04BFC369B3F1EC
:102D7000FF3F01D0002070472030521CB2EBD10F32
:102D8000D8D30120704710B40023B3EBD20F30D258
:102D9000D0F800C00C68A44522D1D0F804C04C681B
:102DA000A4451DD1D0F808C08C68A44518D1D0F82E
:102DB0000CC0CC68A44513D1D0F810C00C69A44550
:102DC0000ED1D0F814C04C69A44509D1D0F818C070
:102DD0008C69A44504D1D0F81CC0CC69A44502D0AC
:102DE00010BC00207047203020315B1CB3EBD20FA9
:102DF000CED310BC012070472DE9F041054601F00B
:102E000000FA0020BD4A21264FF4825784461168FB
:102E10000E60C5F800C011680968136841F004012C
:102E200019601168096811F0040FFAD111680F6078
:102E300040232C460021D4F80080B8F1FF3F04BFA6
:102E4000D4F80480B8F1FF3F1DD1D4F80880B8F160
:102E5000FF3F04BFD4F80C80B8F1FF3F13D1D4F882
:102E60001080B8F1FF3F04BFD4F81480B8F1FF3FE1
:102E700009D1D4F81880B8F1FF3F04BFD4F81C8002
:102E8000B8F1FF3F09D01168C1F800C0401CC0B2C2
:102E90000828BCD30220BDE8F081491C2034B1EBE6
:102EA000D30FC8D31068C0F800C00120BDE8F0817E
:102EB0002DE9F041054601F0A4F900208F4B0926C9
:102EC000844619680E60C5F800C0196809681A6858
:102ED00041F0040111601968096811F0040FFAD17A
:102EE0002C464FF4806200212768B7F1FF3F04BFF2
:102EF0006768B7F1FF3F17D1A768B7F1FF3F04BF7D
:102F0000E768B7F1FF3F0FD12769B7F1FF3F04BF73
:102F10006769B7F1FF3F07D1A769B7F1FF3F04BF6A
:102F2000E769B7F1FF3F09D01968C1F800C0401C3C
:102F3000C0B20328C5D30220BDE8F081491C20346B
:102F4000B1EBD20FD0D31868C0F800C00120BDE8A3
:102F5000F0812DE9F05F0F46804604264FF0020A0B
:102F60004FF0000BDFF8949101F04BF9D9F8001005
:102F700044463846C1F800A00F21B0E82C10A4E860
:102F80002C10491EF9D2D9F800000068D9F80010B9
:102F900040F004000860D9F80000006810F0040F49
:102FA00007D000BF00BFD9F80000006810F0040F80
:102FB000F7D1D9F80000C0F800B0454638460F21D7
:102FC000D5E90023D5E902C4D0F800E0964504BF56
:102FD00042689A4205D18268624504BFC268A24233
:102FE00008D0761E03D34046FFF706FFBCE7022059
:102FF000BDE8F09F10301035491EE1D20120BDE838
:10300000F09F70B50D46044601F0FBF84FF4807256
:10301000214628460FF078F9012070BD2DE9F041D6
:10302000C0B014460E46054610F0FF0F23D025F021
:10303000FF086F4601F0E5F84FF4807241463846CC
:103040000FF062F9E8B2C0F58077A74288BF274643
:1030500068443A4631460FF066F94046FFF7CCFE29
:10306000022843D069464046FFF773FF022841D04B
:103070003D443E44E41BB4F5807F19D34FF4807285
:10308000314668460FF04FF92846FFF7B5FE022893
:103090002CD069462846FFF75CFF02282AD0A4F509
:1030A000807405F5807506F58076B4F5807FE5D2ED
:1030B000C4B16F4601F0A5F84FF480722946384636
:1030C0000FF022F92246314668460FF02CF92846C7
:1030D000FFF792FE022809D069462846FFF739FF1C
:1030E000022807D040B00120BDE8F08140B00A209E
:1030F000BDE8F08140B00B20BDE8F081B44B010089
:1031000034490A6810600968086100F016B831494E
:103110000A6810600968486100F00FB82D49096815
:10312000486770472B49096888677047294801211B
:1031300002681166006801657047274A1168096BCB
:1031400010F0010F18BF21F4404110F0020F1CBF16
:1031500021F4405141F4805110F0040F18BF21F4C4
:10316000406110F0080F18BF41F4407110F0100FCB
:1031700018BF41F0C00110F0200F18BF41F030011E
:1031800010F0400F18BF41F00C0110F0800F18BF75
:1031900041F0030141F4BE01136841F0204119637D
:1031A0001168D1F8901010F4807F1CBF21F003014A
:1031B00041F0020110F4007F1CBF21F00C0040F030
:1031C000080141F4BE00116840F02040C1F89000B1
:1031D00070470000BC4B0100C44B01007047F7482A
:1031E00001688A68F64903680A439A600268D268EF
:1031F00011430268D16001684969F24A00681143CD
:1032000041617047ED4801684969026821F0010198
:1032100041F00D7141F0805151610168C968026847
:1032200021F0400141F00D7141F08051D160016801
:103230008968006821F0400141F00D7141F0805132
:103240008160704710B5DD4C20688168DC482268D9
:10325000014391602168C96808432168C8602068FB
:103260004069D849084321684861D74843F63F710F
:103270000268D1600268002191630268916400686D
:10328000C0F8B01003210A2000F029FA0A2000F04B
:103290004AFA20684069216820F0010040F00D7072
:1032A00040F0805048612068C068216820F04000EC
:1032B00040F00D7040F08050C86020688068216840
:1032C00020F0400040F00D7040F08050886010BD4C
:1032D000BD4A1368186013685960484311688860D4
:1032E0007047B94A1368186013685960484310F072
:1032F000010F18BF401C116888607047B249096807
:10330000C1F8B0007047B04918B10968012088645D
:1033100070470968002088647047AB490A68906369
:103320000868C068096840F00200C8607047DFF8AC
:1033300098C210B4DCF800402062DCF80000416262
:10334000DCF800008262DCF80000C362DCF80010E8
:1033500001200863DCF80000406B10F0010F06D07C
:1033600020BFDCF80000406B10F0010FF8D110F026
:10337000020018BF4FF0FF3010BC70479248016840
:10338000C968006821F00201C16070478E48016879
:10339000C968006841F00101C16070478A4BD3F8E9
:1033A00000C0CCF820001868416218688262196871
:1033B000012008641868406C10F0010F05D020BF90
:1033C0001868406C10F0010FF9D110F0060018BF1A
:1033D0004FF0FF3070477C480168C968006821F0F1
:1033E0000101C160704778480168C968006841F010
:1033F0000401C1607047027C017B02F03F0241EA98
:103400000241714A1368996513680168596213682B
:103410004168996213688168D9621368012119654E
:103420001168496D11F0010F05D020BF1168496D79
:1034300011F0010FF9D11368DB6D83821368DB6D26
:103440001B0CC38213681B6E038313681B6E1B0C5B
:10345000438313685B6E83831268526EC2F30E421D
:10346000C28311F0020018BF4FF0FF30704756487A
:103470000168C968006821F00401C16070475248C2
:103480000168C968006841F00801C1607047DFF851
:1034900038C110B4DCF80040A267DCF800201062EC
:1034A000DCF800004362DCF800008162DCF8001008
:1034B00001200867DCF80000406F10F0010F06D013
:1034C00020BFDCF80000406F10F0010FF8D110F0C1
:1034D000060018BF4FF0FF3010BC70473A48016833
:1034E000C968006821F00801C160704701684FEAAF
:1034F000314235490B68C3F89C200A684068C2F81D
:10350000A0000868C068096840F02000C8607047E3
:1035100001684FEA31422C490B68C3F89C200A68C5
:103520008088C2F8A0000868C068096840F02000E0
:10353000C8607047244BD3F800C0CCF8200018684E
:1035400042621868816219680120C1F89400186805
:10355000D0F8980010F0010F06D020BF1868D0F8FE
:10356000980010F0010FF8D110F0060018BF4FF0CE
:10357000FF307047144A136818621068416211687E
:103580000120C1F890001068D0F8980010F0010FE9
:1035900006D020BF1068D0F8980010F0010FF8D1C5
:1035A00010F0060018BF4FF0FF3070470648016862
:1035B000C968006821F02001C1607047D04B01004C
:1035C0004000341201003412D44B01001B48016842
:1035D000C968006841F01001C1607047A3F1050C93
:1035E000164B10B41C68C4F888C0D3F800C0CCF8DF
:1035F0002000186842621868816219680120C1F8C9
:1036000080001868D0F8840010F0010F06D020BFA9
:103610001868D0F8840010F0010FF8D110F00600FF
:1036200018BF4FF0FF3010BC704704480168C968EC
:10363000006821F01001C16070470000D44B010008
:10364000244810B502680221116502680121116643
:10365000026810215167026841F206015166026852
:103660000021916602680421C2F888100268902146
:10367000C2F884100168D1F88410026841F0010199
:10368000C2F8841002684FF4817111660068016607
:10369000032000F048F80021032000F020F800206B
:1036A00010BD10B5032000F049F80A484FF48071AE
:1036B0000268116602680021116602681021916794
:1036C000006802214165002010BD034900200870F8
:1036D00070470000C04B010068040110704700F003
:1036E0000303DA004FF0FF0C0CFA02F24FF0050C66
:1036F0000CEBC303994000F00C03002808DA3048B3
:10370000006818444369114093431943416170476D
:103710002C4800681844D0F80033114093431943F3
:10372000C0F80013704700F01F01012202FA01F1F6
:10373000244A4009126842F82010704700F01F0127
:10374000012202FA01F11F4A4009126802EB8000CF
:10375000C0F88010704700F01F01012202FA01F149
:10376000184A4009126802EB8000C0F880117047C7
:10377000144909680860704712490968C1F8800057
:10378000704710480068006870470E490968C1F822
:10379000800170470A4800688068704708490A68D5
:1037A00092680968886010467047054A12689268F6
:1037B00000F1100352F8230042F823107047000074
:1037C000B04B0100AC4B010002210C20FFF787BF7A
:1037D000CB4801688A68CB4903680A439A6002684B
:1037E000D26800681143C1607047C54801688968A4
:1037F000026821F4805141F00D7141F080519160D7
:103800000168C968006821F4805141F00D7141F0F0
:103810008051C1607047BC4881B00168096F11F4E4
:10382000007FFAD10168896E11F0010F09D001689B
:10383000D1F8841000910168D1F88410009A914267
:10384000F9D00168096F11F4007F03D102684CF2CE
:1038500071011166006842F24131816601B0704722
:10386000A9494FF40D520B689A660A68126F0B68EB
:10387000DA66012898BF012005D9401EB0F5803FC7
:1038800028BF4FF6FF7080B24FF05C5242EA002032
:103890000A68506609684FF01140C1F88000BAE725
:1038A000994881B00168096F11F4007FFAD101686D
:1038B000896E11F0010F09D00168D1F884100091D0
:1038C0000168D1F88410009A9142F9D000684FF451
:1038D0000D51816601B0704789480068806810F416
:1038E000805008BF704788480068806E00F0010073
:1038F000704785480068406EC0F30F2070478248CB
:103900000068D0F88400704710B50C20FFF723FF43
:103910000C20FFF708FF7C4902200968486710BDAA
:10392000794910B50968032088670C20FFF706FF66
:10393000BDE810400C20FFF70EBF744A11681060FC
:1039400008467047704810B50168096F0068C16685
:103950006E480068002818BF80476D48016841F430
:103960008051016010BD694840687047644810B5D7
:1039700001688A68634903680A439A600268D268EA
:1039800000681143C160604C0320216888670C20E7
:10399000FFF7D4FE0C20FFF7DEFE00F0A9F95D4B27
:1039A00004201968C1F8880019684FF6FF70C1F843
:1039B0008C0072B621684FF40D5088662068006F45
:1039C0002168C86621685448486621684FF0114054
:1039D000C1F88000FFF71FFF19684FF400700866F8
:1039E00062B610BDF8B572B647480168096F11F4A8
:1039F000007FFAD10168896E11F0010F09D00168CA
:103A0000D1F8841000910168D1F88410009A914295
:103A1000F9D002684FF40D5191663E494FF40033DE
:103A20000A68136662B60968D1F80412344D002999
:103A30004AD0364C4FF6FF73591AA1602A68926932
:103A4000D5F800C002F00F02DCF81CC00CF00F0C1F
:103A50006244121D01FA02F2A2F5EA41DFF8BCC08D
:103A60003139614530D20068D0F88400191AE1601C
:103A7000B1F5803F28D22A4B4FF0000CA1FB030781
:103A80000CFB037301FB0C3163460EF051FC401C30
:103A900040082061B0F57A7F38BF4FF47A70214B2F
:103AA0009968002908BF98605A681A609968C3E944
:103AB00001108A421FD9824205D9814201D9616031
:103AC00002E0606000E0626000F023F9286880682E
:103AD000296820F4805040F00D7040F080508860DC
:103AE0002868C068296820F4805040F00D7040F0CC
:103AF0008050C860F8BD8242E5D88142E1D8DEE757
:103B0000D04B010000103412DC4B01006C0401109A
:103B100060040110D84B010000FEFF372F6E160025
:103B20000087930370110110134801688968134AD4
:103B3000006811438160124801684969026841F4D4
:103B40000471516101680969026841F00401116161
:103B500001680969006841F0100101617047084976
:103B6000096888607047BFF34F8F054905480968A9
:103B7000C860BFF34F8FFEE7D04B01000400341242
:103B8000B04B01000400FA051E48016889681E4A0E
:103B90000068114381601D4801684969026841F06D
:103BA000010151610168096A036821F00F02184997
:103BB0000A431A62174B8A1E1B68C3F8C4200068A8
:103BC0000165704711480068006900F07000704797
:103BD0000E48114902681163026810495163026876
:103BE0000F49C2F890100068491FC0F89410704740
:103BF00006480168496C00291ABF006840680948F6
:103C000070470000D04B010004003412C44B010087
:103C100003005FA0CC4B0100C0845FA095995FA01A
:103C20000A005FA061B66505022824BF0020704726
:103C3000FE4B53F8202043F820101046704770B513
:103C4000FB4C2068006FF94D10F0010F06D0216881
:103C50000120C8662868002818BF80472068006FC8
:103C600010F0020F08BF70BD02202168C8666868A6
:103C7000002808BF70BDBDE870400047ED4810B592
:103C800001688A68EC4903680A439A600268D2684E
:103C900011430268D160E64902220B681A65D1F827
:103CA00000C00123CCF86030D1F800C00323CCF869
:103CB0006C3009684A6501688968026821F08001F2
:103CC00041F00D7141F0805191600168C968006850
:103CD00021F0800141F00D7141F08051C160092057
:103CE000FFF721FD0221BDE810400920FFF7F7BCD6
:103CF000D04801688A68D04903680A439A6002681C
:103D0000D26800681143C160C9490220096808658A
:103D10007047C749022009684865C6480168896834
:103D2000026821F0800141F00D7141F080519160F5
:103D30000168C968006821F0800141F00D7141F00F
:103D40008051C1607047BB4800688068C0F3C010F4
:103D50007047B7480168096F11F4007F04D000680C
:103D60004FF440710166704700684FF4807101663E
:103D7000704710B5AE4C2068C06F10F0020F4FF0C6
:103D8000010018BF03202168486700F0C5F9A94960
:103D90000A689269096802F00F02D040C969226876
:103DA00001F00F01C8400521B0FBF1F04FF405719F
:103DB0000009C2F880100EF0C0FAA04AA04B0EF025
:103DC000C1FA0EF0C4FA2168C1F884002068006FBF
:103DD00010F4007F04D021684FF44070086610BDD5
:103DE00021684FF48070086610BD91480168096F22
:103DF00011F4807F04D000684FF440710166704771
:103E000000684FF4007101667047894B30B41A683E
:103E1000D26F12F0010F1DBF4FF0030C1A68C2F8E9
:103E200074C0022204BFD3F800C0CCF874204FF055
:103E3000020C00EB4005C5EBC0104FF49674C1EBCB
:103E4000C0004C4300EB80007E4904EB4010A1FB16
:103E5000001078490022C0080C68A469096804F0C1
:103E60000F04C96901F00F012144C8400521B0FBCE
:103E7000F1F0B0F5803F05D3511C4008CAB2B0F54F
:103E8000803FF9D242EA0C211A6841F01001C2F8D1
:103E900088101968C1F88C001868006F10F4807FD2
:103EA00005D019684FF44070086630BC7047196837
:103EB0004FF40070086630BC70475D480168096FB8
:103EC00011F4003F04D000684FF4403101667047A0
:103ED00000684FF480310166704755480168096FEA
:103EE00011F4803F04D000684FF440310166704700
:103EF00000684FF40031016670474D480068006F5C
:103F0000C0F3002070474A480068006FC0F34020AB
:103F10007047484909688968C1F3C011002904BF86
:103F2000002070474249002808680CBFD0F8000202
:103F3000D0F8040270473F4B1A689268C2F3C0126F
:103F4000002A04BF00207047394A002810680CBFBF
:103F5000D0F88000D0F88800C0F30A2012680CBFA7
:103F6000D2F88020D2F8882002F00F02D3F800C0E7
:103F7000DCF818C01B680CF00F0CDB6903F00F03B2
:103F800063441A449140012202EB400048432E4909
:103F9000A1FB0010000970472C49012008707047F0
:103FA00070B4244BC1EB011149001A689269D3F82F
:103FB00000C002F00F02DCF81CC00CF00F0C6244D1
:103FC000121DD14008BF012104D0B1F5803F28BFA8
:103FD0004FF6FF711A689268C2F3C012002A1CBF24
:103FE00070BC70471A68D2F808C0134A1C684CEAC3
:103FF000020CC4F808C0D3F800C0DCF80CC04CEACE
:104000000202D3F800C0CCF80C20094A0224D2F8EE
:1040100000C0CCF8504015684FF4003CC5F860C0B3
:1040200016680425C6F88850156811E0840401104C
:10403000D84B0100D04B0100800034127B14AE47F6
:10404000E17A843FCDCCCCCC89888888800401106B
:10405000C5F88C1011681B4DCD6611684C671A4964
:1040600002283CBF194E46F8201000211848017064
:1040700016684FF400713166017819B920BF0178D4
:104080000029FBD01068C0F860C010688567106810
:10409000C5661068446518688068196820F080005B
:1040A00040F00D7040F0805088601868C068196852
:1040B00020F0800040F00D7040F08050C86070BC6F
:1040C0007047000002000202495F000084040110F2
:1040D00080040110244900200A6890600968086083
:1040E00022494860704710B51F4C2168486021681C
:1040F000002088600221401EFFF7F1FA21680720A6
:10410000086010BD1849002009680860704717480A
:104110000188491C018070471448806870472DE968
:10412000F041124C002705462780A0684FF47A71B1
:10413000B0FBF1F00C4E401E31684860306887607B
:104140000221C81EFFF7CBFA3168072008602188DA
:10415000A942FCD330680760BDE8F08104494843B8
:104160000249886070470000A84B01008C040110D0
:1041700040420F00704770B5324C05464FF40D5069
:104180002168886621680320C86621682E48486631
:1041900021684CF27100086621682C48C1F8800043
:1041A000216842F24630886602210020FFF797FA24
:1041B0000020FFF7B8FA002D08BF70BD2068806EA0
:1041C00042F2413108432168886670BD1D4810B530
:1041D00002680121916700684FF40D51816600204B
:1041E000FFF7ACFABDE810400020FFF7B4BA15495C
:1041F00001200968486770471249012009688867EB
:10420000704710494CF27100096808667047104AFF
:1042100011681060084670470D4808B5006818B16D
:104220008047002818BF08BD4CF27101054802689C
:1042300011660168096F0268D1660068006F00901E
:1042400008BD0000B84B010007383937009C1C91AD
:104250009804011070B5FF4D00244FF400612C70DC
:104260006C70EC70FC480EF054F84FF40061FB48A1
:104270000EF04FF8FA48AC602C7104604460846022
:10428000C460046144618461C46104624462846204
:10429000C462046344638463C463046444648464E4
:1042A000C464046544658465C465046644668466C4
:1042B000C466046744678467C4676C716821803092
:1042C0000EF027F86821E7480EF023F8EC6070BD87
:1042D000E049002048707047DE4840787047DD486C
:1042E0000079002818BF01207047DA48407900287B
:1042F00018BF01207047D748C078002818BF012098
:104300007047D448407800EB800101EBC000D649EB
:1043100001EBC00070472DE9F041CE4D0446D24973
:104320006A78D24F02EB820000EBC200D04E01EB64
:10433000C0033A78307821461044420018460DF008
:10434000F2FF6A78C74902EB820000EBC20001EB82
:10435000C0033A78307821461044420018460DF0E8
:10436000E2FF01206871BDE8F081BA48C06870477B
:10437000B849B948497800EBC12070472DE9F041B0
:10438000B44E07463078002814BFBA48BA480478BB
:1043900014BFBA48BA48057804FB05F8FEF71FFFBA
:1043A00029462046FEF794FFAC4C7078A4F50061D6
:1043B00004EBC02201EBC0203B460146FEF7B7FFED
:1043C000FEF720FF70784FEA480204EBC020394620
:1043D0000DF0A9FF0120F070BDE8F0812DE9F04754
:1043E0009C4D04469C486978DFF8888200EBC12C1C
:1043F0002878DFF88492A14EA14F2146002815BFEE
:1044000098F8002099F8002033783B7802FB03F0FD
:104410004FEA400260460DF086FF9048697800EB55
:10442000C12C28782146002815BF98F8002099F85B
:10443000002033783B7802FB03F04FEA40026046ED
:104440000DF071FF0120E870BDE8F08781488068B9
:10445000704770B58B4C0546014622788048520063
:104460000DF061FF22782946520087480DF05BFF6E
:1044700078490120087170BD2DE9F04FDFF8D49123
:10448000ADF6440D99F80300CDF8240899F804001E
:10449000CDF8200899F80500CDF81C0801F09CFB28
:1044A0000446FDF72FFBCDF83C08FDF724FDCDF8C1
:1044B0003808FCF79AFFCDF83408FCF735FCCDF846
:1044C0002808FCF72EFC0546FDF71EFBDDF8280842
:1044D00010F0010F02D0FDF714FD04E00020FCF7FE
:1044E00077FFFDF756FD99F802000026002804BF6B
:1044F0000420C9F8140007D0022C1CBF3C20C9F8C6
:10450000140006D089F802604FF0010A022D21D173
:1045100010E008F097FD38B10DF01EFF012807D01C
:104520000DF01AFF082803D01E20C9F81400E9E78F
:104530000F20FAE7022C18BF052C0BD1FCF713FF54
:1045400008300009022C18BF052039D0C9F8140022
:1045500089F802A00428BCBF0420C9F8140099F807
:104560000200B9F81410000240EA014040F00102D4
:104570000621072008F0D5F837464FF0000B04F06D
:10458000A5FD012822D00DF50060FDF7E9FE002809
:1045900000F0F4810DF5006005F053FB002089F870
:1045A0000100D9F81400C01E8642CABF8742012507
:1045B0000025DDF80C08F8B1DDF8200850B134E032
:1045C0004FF47A71484390FBF1F0BFE74FF0010BD5
:1045D00000F0BDB9DDF80C887DB12A4C4146207849
:1045E00042001F480DF09FFE2078414642002648B9
:1045F0000DF099FE89F804A017E0FEF7F0FD214CBC
:1046000001212078FEF764FE1F4A4346A2F14001D3
:104610000846FEF78CFEFEF7F5FD20784146420085
:1046200019480DF080FE89F804A0DDF8080800287C
:104630007DD0DDF82408002879D199F80000DDF854
:104640000848E0BBD9F80880B8F1000F43D009480A
:1046500000781BE09C0401107C1101107C190110F2
:104660007C290110642A0110FC290110DF040110CB
:10467000E0040110DD040110DA040110DE04011071
:10468000DB040110E1040110BC290110CDF8300851
:10469000FA480078CDF82C08FEF7A1FDDDF82C18BB
:1046A000DDF83008FEF71DFE214642460846FEF7BB
:1046B00075FEFEF7A7FDF2480078022800E023E02F
:1046C00004BF404605F094F8ED480078092804BF7F
:1046D000204605F08DF8EB480078012814D9DFF862
:1046E000A08398F80000042804BF204605F080F855
:1046F000214668460DF035FE044698F8000005286E
:1047000004BF204605F074F89DB3DF4899F8011006
:1047100099F8002000EBC1202146002A0CBFDB4A9B
:10472000DB4A137814BFD54ADA4A127800E061E018
:1047300003FB02F24FEA42020DF0F5FDD64899F86C
:10474000011000EBC12399F800002146002814BF96
:10475000CF48CE48007814BFC84ACE4A127800FB32
:1047600002F04FEA400218460DF0DDFD89F803A083
:1047700035E0FFE7CDF82C4899F80000002814BF79
:10478000C348C24890F8008014BFBC48C1480478B0
:1047900008FB04F0CDF83008FEF721FD2146404625
:1047A000FEF796FDBC4C99F80100A4F5006104EBFE
:1047B000C02201EBC0200146DDF82C38FEF7B7FD22
:1047C000FEF720FDDDF83008DDF82C18420099F8DE
:1047D000010004EBC0200DF0A6FD89F803A0A84855
:1047E0000078032806D1A84899F8011000EBC120F1
:1047F00004F0FEFFDDF8140800287DD0DDF81C0869
:10480000002879D199F80000DDF8144848BBD9F8A0
:104810000C80B8F1000F24D0A0480178A04800789F
:104820000844401C4008019002200090FEF7D7FC8D
:10483000DDE90010FEF755FD214642460846FEF729
:10484000ADFDFEF7DFFC97480078022804BF404624
:1048500005F0D2F893480078092804BF204605F0F7
:10486000CBF845B399F801008C4D00EB800101EBCA
:10487000C0018D48DFF8288200EBC1032A7898F840
:10488000000021461044420018460DF04CFD99F8F6
:1048900001002A7800EB800101EBC001834898F801
:1048A000003000EBC1001A44214652000DF03BFDE0
:1048B00089F805A02FE07948A0460178784800786B
:1048C0000C18FEF78CFC601C40080221FEF700FD6E
:1048D00099F80100754D00EB800101EBC000A5F1D6
:1048E000680105EBC00201EBC00108464346FEF734
:1048F0001EFDFEF787FC00E01CE099F80100620055
:1049000000EB800101EBC00005EBC00041460DF05B
:104910000AFD89F805A06348007803280AD199F8B0
:10492000010000EB800101EBC0015F4800EBC1001A
:1049300005F062F8FDF778FDD9F81400761C7F1CAD
:104940008642A8BF874211DBD9F8100070B1FDF78D
:10495000DBF8DDF83408FCF73BFDDDF83C0890B1EE
:10496000DDF8380868B1FDF714FB0CE0DDF8280825
:1049700010F0010F08BFFDF70CFB00E601F073F922
:10498000FDE5FDF7BEFABBF1000F04BF0420C9F836
:1049900014000BD0DDF8240889F80300DDF82008A6
:1049A00089F80400DDF81C0889F80500B9F814102E
:1049B0004FEA0B2040EA01420621072007F0B1FE32
:1049C0000DF6440D5846BDE8F08F10B50024FDF7F4
:1049D00078FA374910F0020F0AD0CA78002A08BFC7
:1049E000012410F0040F03D00A79002A08BF012423
:1049F00010F0010F18BF10F0100F03D048790028F5
:104A000008BF01240020002C08BF10BD0020087042
:104A1000BDE8104030E508B50F2101F0D0F90128BC
:104A200004D1FFF7D2FF009001F031FB2048C1789C
:104A300000291CBF4179002904D0007900281CBF3F
:104A4000012008BD002008BD08B50F2101F0B7F90D
:104A5000012804D1FFF7B9FF009001F018FB1448BA
:104A6000C17800291CBF4179002904D000790028B1
:104A70001CBF012008BD002008BD0000DE0401109D
:104A800045050110DC0401107C110110DA0401104D
:104A9000DD040110DB0401107C190110DF0401109A
:104AA000E00401104A050110FC290110642A0110DC
:104AB0009C0401107047FE4900220028CA700A7148
:104AC0004A711CBF0120887000F025BE10B54FF45C
:104AD0000061F8480DF01DFCBDE810404FF4006186
:104AE000F5480DF016BC2DE9F041F14E84460699CB
:104AF0003078002814BFF148F1480078C91A4143C2
:104B000003FB00F4EB48727800EBC2204A000CEB88
:104B1000440100EB440015460F460DF004FCE64846
:104B200071782A4600EBC12000EB440039460DF0B5
:104B3000FAFB0120F070BDE8F0812DE9F047DC4F71
:104B4000804608983978002914BFDC49DC490D7883
:104B5000A0EB030905FB09F603FB05F4FEF73FFB99
:104B600049462846FEF7B4FBD34D787808EB440855
:104B700005EBC02101EB4402A5F5006101EBC0206B
:104B800000EB440043460146FEF7D1FBFEF73AFB3B
:104B90007878720005EBC02000EB440041460DF030
:104BA000C2FB0120F870BDE8F087002818BF012083
:104BB000BF49C870704770B5BD4D040004BFA86000
:104BC00070BD02F013FA50B9BC48BE4B21460278C2
:104BD000BD4800785043420018460DF0A4FBB94888
:104BE000A86070BDB9490020086048608860C8604E
:104BF000086148618861C861086248628862C86269
:104C0000086348638863C863086448648864C86448
:104C1000086548658865C865086648668866C86628
:104C2000086748678867C8677047A84870470028C2
:104C300018BF01209E490871704710B56821A4482B
:104C40000DF067FBBDE810406821A2480DF061BB84
:104C5000002818BF012096494871704710B5944C40
:104C6000002804BFE06010BD682201469A480DF09C
:104C70005AFB9948E06010BD70B58D4D0021044687
:104C8000E9702971697100F046FD002C14BF012004
:104C900000202870BDE87040FFF7EEBB2DE9F04F13
:104CA0008BB04FF4006187480DF033FB68218A48D0
:104CB0000DF02FFBFDF705F90446FCF723FF0990E3
:104CC000FDF719F90890FCF790FB0790FCF71CFF23
:104CD0000020FCF77DFBFDF75CF900252E4604F073
:104CE000F5F9012856D06846FDF73AFB00285ED05A
:104CF000684604F0A6FF14F0020F1CD06F48DFF8DE
:104D0000C4B1DDF8089090F800806F48DA46077863
:104D1000FEF765FA0120FEF7F6FA39464046FEF73F
:104D2000E0FA524649465846FEF738FB0020FEF7A7
:104D3000EAFAFEF767FA14F0010F18BF14F0100F2B
:104D400020D06648DFF890B14FF00208017864483F
:104D5000DA46DDF8149000780844401C4708FEF756
:104D60003EFA0120FEF7CFFA41463846FEF7B9FA7F
:104D7000524649465846FEF711FB0020FEF7C3FA9B
:104D8000FEF740FAFDF750FB6D1C102D03D2FDF726
:104D900000F9A4E70126FCF7B7FE0798FCF718FB1B
:104DA000099848B1089828B1FDF7F3F804E000F03D
:104DB0005AFF94E7FDF7A5F8E6BB3D4F14F0020F4C
:104DC00019D03E48DFF8FCC001783F4863460078C0
:104DD00001FB00F210200021002A0AD933F91180CA
:104DE00008EB5008B8FBF0F52CF81150491C8A422A
:104DF000F4D83448B86014F0010F18BF14F0100F45
:104E000018D03648344B017835489C4600780A184B
:104E10004FF010014FF000000AD03CF9105005EBA4
:104E20005105B5FBF1F423F81040401C8242F4D840
:104E30002948F8600BB03046BDE8F08F012070477C
:104E40002DE9F043274C4BF6BB39C1B0D4E900063D
:104E5000D4E903574FF00008484524D04FF480713F
:104E600068460DF056FAFF22511C68460DF07EFA96
:104E7000FF2060F30706192060F3070560F30F2594
:104E8000142060F31745CDF80090CDE90357CDE924
:104E9000016820466946FEF75CF801281EBF002025
:104EA00041B0BDE8F083012041B0BDE8F0830000CF
:104EB0009C0401107C1101107C190110DD0401100B
:104EC000DA0401107C210110DE0401107C2901109C
:104ED000FC290110642A0110CC2A0110DF04011002
:104EE000E004011000AE0200A9487047A849042858
:104EF00004BFC87A704710DC002804BF08797047E7
:104F0000012804BF087A7047022804BF487A704716
:104F1000032804BF887A70470BE0142804BF087B7D
:104F20007047152804BF487B7047162804BF887B4C
:104F30007047FF2070472DE9F043DFF85492C1B06D
:104F4000D9E9015461F3070462F30F24DDF820C1AD
:104F5000D9E9037860F3070563F31744FF226CF384
:104F60001F64511C6846D9F800600DF0FFF90096E7
:104F7000CDE90154CDE9037869464846FDF7E9FFDC
:104F8000012818BF002041B0BDE8F0832DE9F04FA3
:104F90007F4B9046C1B0D3E90274D3E900568946ED
:104FA0008246FF22511C6846D3F810B00DF0DEF99E
:104FB0006AF3070469F30F2468F31744CDE9027418
:104FC000CDE9005669467248CDF810B0FDF7C1FF33
:104FD00041B0BDE8F08F2DE9F04F6E4C4FF0000866
:104FE000C1B0664245461420FFF780FF40B20290F0
:104FF0001520FFF77BFF4FFA80F91620FFF776FFA9
:1050000040B201901620FFF771FF404240B200907D
:10501000FCF757FFDFF880A1834600208AF80300E1
:105020008AF804008AF8050000F075FB00208AF871
:105030000000FFF721FA1BF0100F05D00DF09BF9CF
:10504000012808BF4FF001081BF0020F7BD0534826
:1050500054499AF8012090F800C05148002701EB0C
:10506000C22200780028C8BFACF1010A1DDD002172
:10507000BAF1000F16DD01F1010B01FB00730BFB10
:10508000007B32F8133032F81BB0A3EB0B031BB2DA
:10509000002BB8BF5B421BB2AB42C8BF1D46491CC8
:1050A0005145E8DB7F1C8742E1DBA945B8BF48F0EA
:1050B00002080027B946BCF1000FC8BFA0F1010AE1
:1050C0001BDD0021BAF1000F13DD09FB001332F8DC
:1050D00013B002EB43035B88ABEB03031BB2002B63
:1050E000B8BF5B421BB2BB42C8BF1F46491C5145FB
:1050F000EBDB09F10109E145E3DB0299B942B8BFF5
:1051000048F002084FF00009BCF1000F13DD002346
:1051100000280CDD09FB003132F91110A142C8BF93
:105120000C46B142B8BF0E465B1C8342F2DB09F16C
:105130000109E145EBDB0198A04202DB0098B04297
:1051400001DD48F002082846114D7242D5E901966A
:1051500067F3070660F30F2664F3174662F31F66D2
:10516000D5E903B4FF2268F30709511C6846D5F856
:1051700000A00DF0FBF8CDF800A0CDE903B4CDE917
:10518000019669462846FDF7E4FE41B0BDE8F08F80
:1051900000AE0200F1D8FFFF9C040110DB040110F7
:1051A000DA0401107C1101100023FE4A01291EBF00
:1051B0001846137070471078401CC1B21170042952
:1051C00026BF0220137001207047F648407801285E
:1051D00018BF002070470021F248C17081707047ED
:1051E0002DE9F05F00248A46B0F90020B0F90210E2
:1051F00005462746A046A3462646A146501A48BF64
:10520000881A03B205EB4A0030F9021C30F9042C6D
:10521000881A48BF501A00B2082BA8BF082807DB1D
:1052200007F090FF002804BF0123AAF1020002D07A
:105230000023AAF1010001B218468B422ADC35F99D
:1052400010204245C4BF904600F0FF0998421DDD82
:1052500005EB400C3CF902CCACEB0202D21D0E2A4D
:1052600005D804F1010C0CF0FF0488420ED1A742CE
:105270000BD22746884203D10E2A98BF46B201D9E5
:10528000421E56B2F21B4FFA82FB0024401C80B231
:105290008142D4DAAAF10400874205DDCB45DEBFA6
:1052A000B1450020BDE8F09F0120BDE8F09F70B53A
:1052B000BE4ABD4906461478097800EB4402104600
:1052C000FFF78EFF054621463046FFF789FF002293
:1052D000B449002D1CBF0028CA7008D1C878401CF2
:1052E000C0B2C8700A2882BFCA70002070BD0120F9
:1052F00070BD2DE9F34F91B00CA81199079003A848
:105300000590A94800270DF1080E00780090019043
:10531000A6480DF1100B3E4602780692B1F90050F6
:1053200031F912C0ADF8302001202C466346ADF8AB
:105330000870ADF80C20ADF81070012A24DD31F9A9
:105340001080A845C8BF4546A045BCBF4446ABF841
:10535000000001EB400831F9109038F902ACBAEBCB
:10536000090848BFA9EB0A080FFA88F8B84507DD15
:105370004746CA45D4BF8046A0F10108AEF8008078
:10538000401C00B28242DADCDDF80480501C08EBDD
:10539000020A824524DD31F910206245C8BF9446D7
:1053A0009A4202DA1346059A108001EB400231F965
:1053B000108032F9029CB9EB080248BFA8EB090241
:1053C00012B2B24208DD1646C145D4BF0246421EA3
:1053D000DDF81C80A8F80020401C00B28245DADC11
:1053E0007348ACEB03030268012092F81F118B4253
:1053F000C4BF2B1B8B4205DD92F81E118E42C8BF25
:105400008F4200DC00200890002800F00981DDE9CF
:105410001145BDF930000590BDF9080007900098CE
:105420000F90069E0020CDE90A060F98771E3044A3
:10543000A0F101080690059834F910000E90079825
:1054400034F910000D9000200090019083468246B0
:1054500081460990FEF755FF014600200246109054
:10546000079800280BDB34F910C00D9BBCEBA30F91
:1054700001DA0A9003E0401E00B28242F3DD079891
:10548000B31A83420CDD34F910E0DDF834C0BEEB12
:10549000AC0F01DA074603E0401C00B29842F2DB91
:1054A0000598B31883420CDC34F910E0DDF838C0FD
:1054B000BEEBAC0F01DA0B9003E0401E00B283425A
:1054C000F2DDDDE905039B1A83420BDD34F910C0E0
:1054D0000E9ABCEBA20F01DA804603E0401C00B23A
:1054E0009842F3DB0B98404530DA05EB400235F982
:1054F0001030B2F902C0B3EB0C0248BFACEB0302B0
:10550000019B1A4412B2019201EB400231F91030B2
:10551000B2F902C0B3EB0C0248BFACEB0302009B34
:105520001A4412B2009204EB400234F91030B2F97E
:1055300002C0B3EB0C0248BFACEB0302099B401C5A
:105540001A4412B200B209924045CEDB0A98B84222
:1055500036DA05EB400235F910C0B2F90230BCEB87
:10556000030248BFA3EB0C0252440FFA82FA01EB8C
:10557000400231F910C0B2F90230BCEB030248BF5F
:10558000A3EB0C025A440FFA82FB04EB400234F9FD
:105590001030B2F902C0B3EB0C0248BFACEB03020F
:1055A0004A4407E0B4040110DF040110E0040110D4
:1055B000E0050110401C00B20FFA82F9B842C8DBC6
:1055C000DDE90001411A0998B1EB600FDFBFABEBD9
:1055D0000A00B0EB690F109800280AD0FC498878BF
:1055E000401CC0B28870032884BF002088701BD97B
:1055F00012E0F749002088700B98A8EB00010F9883
:10560000B1EB600F04DC0A98381AB0EB660F0BDDC3
:105610002046FFF74CFE38B94FF0FF30089003E00A
:10562000EB490020C8708870089813B0BDE8F08F6F
:10563000E748C08B80B27047E548008C80B2704765
:1056400070B515460E46044607F0C6FB002C18BF81
:1056500070BD042818BF052806D0DE48006890F801
:105660002400A84288BF70BD3046BDE870400CF0F1
:1056700087BED748407C7047DDF800C001434FF03B
:10568000000008BF8CF8000052EA030108BF8CF844
:1056900000007047002B08BF7047084318BF142A4A
:1056A000D4BF01200020186070472DE9F0479946CB
:1056B00014460D468246089E07F03EFBC44F4FF04D
:1056C000060828B9B4EB450FC8BFA6F800800BDC6C
:1056D00007F032FB012807D1B9F1000F0CBFBAF176
:1056E000FF3F002004D038737D83BC83BDE8F08782
:1056F000B7F91A00B7F91C1008442919884202DAD0
:10570000387B401C3873387B062824BFA6F80080FD
:105710000520E9D3E7E7AE4810B500214183818336
:1057200007F00AFB002808BF10BD07F008FB0022A5
:105730003021BDE81040012006F0F3BFA44900204D
:10574000C8734884087470472DE9F047904689462D
:10575000044607F0F1FA9E4E002750B3B6F9220036
:105760008442C8BF748420460CF00FFE04460D46E8
:10577000B6F922000CF009FE974A984B0CF0E2FDB6
:1057800022462B460DF01AF818D2B9F1010F15D0A8
:10579000F07B401CC0B2F073032898BFBDE8F087CF
:1057A000F773778401203074FF2088F80000BDE88B
:1057B000F087F77377843774BDE8F087F773BDE837
:1057C000F08787490180418081800021C18001816B
:1057D00042F20F7242818181C18101824182704710
:1057E0002DE9FF5F05467F480A26002490F80090C7
:1057F0007D48774FDDF838B090F800809246012B55
:1058000008BFBBF1000F1BD007F096FA01281DD08E
:10581000B7F91E0001283DDD1E23398B0020A1426F
:105820001CBF3C83B872002119EB08021ED035F969
:1058300011C09C4516DDB87204B00020BDE8F09F91
:10584000B87A052824BF0520B87223E0BBF1010F08
:1058500008BF4123E1D03C2301240526BAF1000F03
:10586000DBDDD9E7491C89B28A42E0D8B97A012246
:10587000491CC9B2B972B14288BFFA7202D8F97A2A
:10588000012907D101994FF0FF330B60FA71F872CB
:10589000B872387304B00020BDE8F09F2DE9F041E4
:1058A0001F4616460D4607F047FA012826D1002468
:1058B000DFF81CC1002EC2BF8CF808400020BDE8F4
:1058C000F081012F1AD09CF808000121401CC0B2C1
:1058D0008CF808000A2888BF8CF8091003D89CF8B7
:1058E000090001280AD14FF0FF3028608CF807101A
:1058F0008CF809408CF808408CF80C400020BDE87A
:10590000F08110B5044607F09DFB002808BF10BDCC
:105910000CF022FD092804D00CF01EFD0A2818BF47
:1059200010BD07F015FC012818BF10BD4FF0FF3067
:10593000274920600120C87110BD70B52B4804783C
:105940002B480578FEF714FD844600200346002D01
:10595000D8BF70BD0021002C0ADD03FB041292B2F7
:105960003CF912208242A8BF1046491CA142F4DB38
:105970005B1CAB42EEDB70BD1C4908B50A781C49C4
:1059800002230978891E00910021FFF7ACF801205D
:1059900008BD164908B50A78154902230978891EF9
:1059A00000910021FFF7C9F8012008BD70B507F08C
:1059B00049FB074C002538B10CF0CEFC012819D06A
:1059C0000CF0CAFC082815D06582A582E58226E085
:1059D000B4040110E0050110CDCCCCCCCCCCE43F1C
:1059E000F1D8FFFFDF040110E0040110DA04011018
:1059F000DB040110608AE18A50EA01024FF00101E4
:105A00000CBF618201280AD1A08A401C80B2A0820A
:105A10000F289CBF012070BD6582A582E182002015
:105A200070BD2DE9FF4F83B01C460546DDF858B028
:105A3000DDF84CA0109F07F0CFF901955F4E0025CF
:105A4000A846757407F0FEFA4FF0010958B107F047
:105A5000F9FAF8B10CF080FC092813D00CF07CFCAA
:105A60000A280FD016E014980090534601A9119A05
:105A70000598FFF7B5FE534601A9119A0598FFF75F
:105A80000DFF07E007F064FB012803D1801E0190A1
:105A900086F8079000F0A0F805280BD1F08B0004E1
:105AA000000C07D0308C0004000C03D1401E019084
:105AB00086F80790FFF77AFF012808D100F08CF8EC
:105AC000052804D04FF0FF30019086F8079007F0CA
:105AD00039FB012808BFBBF1010F0DD00198DFF899
